:020000040000fa
:080000000002040000000000f2
:020000040000fa
:100400006f852000007f22000001880000000000ae
:100410000c000700a03d2000010020001100070093
:10042000000020000000e000020032000000020096
:1004300000000000dc020200000000000040da00c2
:100440000000fe004440a900000020000000e00081
:100450000300320000002000a00188004440a800f2
:100460000000060091018800800078000000eb0089
:1004700015003700e280400032a0b4009101ba00bc
:10048000e280400032a0b4009102ba00e280400055
:1004900032a0b4000002eb00472bde00f507b200eb
:1004a000602ce10004003a000059eb008301e900f0
:1004b000fdff3e00040037006128e100010032002a
:1004c0000082eb00040007001101ba000200e00006
:1004d000e8ff3a00000006003159ba008301e90044
:1004e0000c0032002159ba008301e90008003200f3
:1004f0000400e00003003a00e280400032a0b400b3
:10050000f5ff370011d9ba008301e900faff3a007c
:100510008100e800e180400032a0b4000000060045
:10052000020ab900001bb9000200b80081004200b5
:100530008100430000000600010020009042880076
:10054000a142880011c0b300008520000148780056
:1005500000000600028520001204e00006003a00b8
:10056000100020000100200090428800a142880075
:1005700010c0b30000497800d2e62400631c2400b8
:1005800090428000a1428000e5ff07000001be000c
:1005900090032300010020000200400083804800f7
:1005a00090428800a14288004088de00cf80de00b3
:0805b00000f0a10000000600ac
:020000040000fa
:020000040002f8
:04aff8009f7800003e
:020000040000fa
:020000040002f8
:04affc007f3f000093
:020000040000fa
:10000800e2030000e2030000e2030000e203000054
:10001800e2030000e2030000e2030000e203000044
:10002800e2030000e2030000e2030000e203000034
:10003800e2030000e2030000e2030000e203000024
:020000040000fa
:020000040000fa
:1005b8000600fa0046000700360007004a00070058
:1005c80000188000daff0700e0ff0700e70060007e
:1005d800000820000180de00100798000000eb00f2
:1005e800000f78000000370085c0bf000042b2004d
:1005f8000004e000fcff320085a0a9003e000700cf
:1006080020079800010820002e0090000088de00d6
:10061800200798000e0037002e0090000080d100bf
:10062800100798009e00900000082000808f50005e
:100638000200340000042000100798001e009000fb
:100648000000e00002003c000008200010079800ad
:10065800ae0090001e009000808f5000eeff320028
:100668009e0078006f8060000000e00005003a00fe
:10067800ae0090001e009000008040002016880008
:10068800020037002e009000201688001e0fe80098
:10069800d5ff37000000fa00400e2000001988003e
:1006a800c00320001019880090d02000201988006d
:1006b8005000200040198800f0fd2f0060198800c4
:1006c8000000eb00801988000080fa000000060096
:1006d8000000fa00d2c2a80000f02f00001688001f
:1006e8000080fa00000006000000fa0021e3a800dc
:1006f8000080fa00000006000600fa0001188000d9
:100708001018800080804000201880008080400001
:1007180030188000808040004018800080804000b1
:100728005018800080804000601880008080400061
:100738007018800080804000801880008080400011
:100748009018800080804000a018800080804000c1
:10075800b018800080804000c01880008080400071
:10076800d018800080804000e01880008080400021
:10077800f018800000804000010020001007980059
:10078800210798001e009000ae0090004509dd008a
:100798004b00de0000007100cb08de00000f78007f
:0c07a8001e0078000080fa00000006002f
:020000040000fa
:1007b40050080000060000000000000000000000d7
:020000040000fa
:0407c4000000fe0033
:00000001FF
